:020000040000FA
:02000000612974
:040002000034003492
:08000800A0000308A1000A0892
:10001000A20022088A0021088300A00E200E0900F9
:100020008312850107309F008316E030850083121C
:1000300086018316F2308600831208008316093089
:1000400099000030980083129030980083120800C5
:10005000831281018B12831688308100831208007D
:100060008207FF34FF34FF34FF34FF34FF34FF34A2
:10007000FF34FF34FF34FF34FF34FF34FF34FF34E8
:10008000FF34FF34FF34FF34FF34FF34FF34FF34D8
:10009000FF34FF34FF34FF34FB34ED34E034D33429
:1000A000C734BC34B234A8349E3495348D3485348E
:1000B0007E34773470346A3464345E345934543462
:1000C0004F344B34463443343F343B343834353486
:1000D00032342F342C342A34283425342334213438
:1000E0001F341E341C341A341934183416341534A1
:1000F000143413341234113410340F340E340D34DC
:100100000C340C340B340A340A34133412341134E2
:1001100010340F340E340D340C340C340B340A34D8
:100120000A3413341234113410340F340E340D34B5
:100130000C340C340B340A340A34133412341134B2
:1001400010340F340E340D340C340C340B340A34A8
:100150000A3413341234113410340F340E340D3485
:100160000C34C630A3000130A400A30BB828A40BA4
:10017000B528BA28000008001530A3007430A40088
:100180000630A500A30BC528A40BC728A50BC228C1
:10019000C928CA28000008005A30A600DE20B12075
:1001A000B120A60BCE28B1202830A600EA20B1202D
:1001B000B120A60BD628B1013012080005110000AD
:1001C0000000851500000000000000000000000095
:1001D00085110800051500000000851500000000CD
:1001E000000000000000000085110800060E0F3915
:1001F000A90008002810981CFF28181218168C1E39
:10020000080006141A08A70028140610080027087A
:100210008039803C031911292D1C0800AD1C2C29A4
:10022000302927080F392902031D0000AA01AD104B
:100230002D112708F039AA002A08903C031D232914
:100240002D142D1608002A08803C031D2A292D1480
:100250002D120800AD0108002708AB00AD140800FE
:100260002708AC002D150800AD1C08002D1D080046
:100270002D1E4529AC0803194529AD102D11AE0AD4
:100280002B08AF003020B2000800AD102D11AE08D1
:10029000031DAE0B0800AF010800301A5729DE20FD
:1002A000B10A01303102031D080030160800EA20AF
:1002B000B10803195F29B103B108031D080030120A
:1002C00008001020AD01AA01AB01AC01A801A701F3
:1002D000AF01AE010516BC20061486150512BC2020
:1002E000CC20BC20061086111E2028200B1D76294C
:1002F0000B11F620FA20281807212D183421AF08F9
:10030000031984298615862986118F29AF080319B8
:100310008F29B20B8F292F083020B2004D2176296A
:02400E00023F6F
:00000001FF
